{
  "contractName": "LANDRegistry",
  "abi": [
    {
      "constant": true,
      "inputs": [],
      "name": "name",
      "outputs": [
        {
          "name": "",
          "type": "string"
        }
      ],
      "payable": false,
      "stateMutability": "view",
      "type": "function"
    },
    {
      "constant": true,
      "inputs": [
        {
          "name": "x",
          "type": "int256"
        },
        {
          "name": "y",
          "type": "int256"
        }
      ],
      "name": "ownerOfLand",
      "outputs": [
        {
          "name": "",
          "type": "address"
        }
      ],
      "payable": false,
      "stateMutability": "view",
      "type": "function"
    },
    {
      "constant": false,
      "inputs": [
        {
          "name": "user",
          "type": "address"
        }
      ],
      "name": "setLatestToNow",
      "outputs": [],
      "payable": false,
      "stateMutability": "nonpayable",
      "type": "function"
    },
    {
      "constant": true,
      "inputs": [],
      "name": "totalSupply",
      "outputs": [
        {
          "name": "",
          "type": "uint256"
        }
      ],
      "payable": false,
      "stateMutability": "view",
      "type": "function"
    },
    {
      "constant": false,
      "inputs": [
        {
          "name": "x",
          "type": "int256"
        },
        {
          "name": "y",
          "type": "int256"
        },
        {
          "name": "beneficiary",
          "type": "address"
        }
      ],
      "name": "assignNewParcel",
      "outputs": [],
      "payable": false,
      "stateMutability": "nonpayable",
      "type": "function"
    },
    {
      "constant": true,
      "inputs": [
        {
          "name": "x",
          "type": "int256[]"
        },
        {
          "name": "y",
          "type": "int256[]"
        }
      ],
      "name": "ownerOfLandMany",
      "outputs": [
        {
          "name": "",
          "type": "address[]"
        }
      ],
      "payable": false,
      "stateMutability": "view",
      "type": "function"
    },
    {
      "constant": false,
      "inputs": [
        {
          "name": "x",
          "type": "int256[]"
        },
        {
          "name": "y",
          "type": "int256[]"
        },
        {
          "name": "data",
          "type": "string"
        }
      ],
      "name": "updateManyLandData",
      "outputs": [],
      "payable": false,
      "stateMutability": "nonpayable",
      "type": "function"
    },
    {
      "constant": false,
      "inputs": [
        {
          "name": "assetId",
          "type": "uint256"
        },
        {
          "name": "data",
          "type": "string"
        }
      ],
      "name": "generate",
      "outputs": [],
      "payable": false,
      "stateMutability": "nonpayable",
      "type": "function"
    },
    {
      "constant": false,
      "inputs": [
        {
          "name": "x",
          "type": "int256"
        },
        {
          "name": "y",
          "type": "int256"
        },
        {
          "name": "beneficiary",
          "type": "address"
        },
        {
          "name": "data",
          "type": "string"
        }
      ],
      "name": "assignNewParcel",
      "outputs": [],
      "payable": false,
      "stateMutability": "nonpayable",
      "type": "function"
    },
    {
      "constant": true,
      "inputs": [
        {
          "name": "holder",
          "type": "address"
        }
      ],
      "name": "assetsOf",
      "outputs": [
        {
          "name": "",
          "type": "uint256[]"
        }
      ],
      "payable": false,
      "stateMutability": "view",
      "type": "function"
    },
    {
      "constant": false,
      "inputs": [
        {
          "name": "x",
          "type": "int256"
        },
        {
          "name": "y",
          "type": "int256"
        },
        {
          "name": "to",
          "type": "address"
        }
      ],
      "name": "transferLand",
      "outputs": [],
      "payable": false,
      "stateMutability": "nonpayable",
      "type": "function"
    },
    {
      "constant": true,
      "inputs": [
        {
          "name": "holder",
          "type": "address"
        }
      ],
      "name": "assetsCount",
      "outputs": [
        {
          "name": "",
          "type": "uint256"
        }
      ],
      "payable": false,
      "stateMutability": "view",
      "type": "function"
    },
    {
      "constant": true,
      "inputs": [
        {
          "name": "value",
          "type": "uint256"
        }
      ],
      "name": "expandNegative128BitCast",
      "outputs": [
        {
          "name": "",
          "type": "int256"
        }
      ],
      "payable": false,
      "stateMutability": "view",
      "type": "function"
    },
    {
      "constant": false,
      "inputs": [
        {
          "name": "",
          "type": "bytes"
        }
      ],
      "name": "initialize",
      "outputs": [],
      "payable": false,
      "stateMutability": "nonpayable",
      "type": "function"
    },
    {
      "constant": false,
      "inputs": [
        {
          "name": "assetId",
          "type": "uint256"
        }
      ],
      "name": "generate",
      "outputs": [],
      "payable": false,
      "stateMutability": "nonpayable",
      "type": "function"
    },
    {
      "constant": true,
      "inputs": [
        {
          "name": "x",
          "type": "int256"
        },
        {
          "name": "y",
          "type": "int256"
        }
      ],
      "name": "landData",
      "outputs": [
        {
          "name": "",
          "type": "string"
        }
      ],
      "payable": false,
      "stateMutability": "view",
      "type": "function"
    },
    {
      "constant": false,
      "inputs": [
        {
          "name": "x",
          "type": "int256[]"
        },
        {
          "name": "y",
          "type": "int256[]"
        },
        {
          "name": "to",
          "type": "address"
        }
      ],
      "name": "transferManyLand",
      "outputs": [],
      "payable": false,
      "stateMutability": "nonpayable",
      "type": "function"
    },
    {
      "constant": true,
      "inputs": [
        {
          "name": "assetId",
          "type": "uint256"
        }
      ],
      "name": "exists",
      "outputs": [
        {
          "name": "",
          "type": "bool"
        }
      ],
      "payable": false,
      "stateMutability": "view",
      "type": "function"
    },
    {
      "constant": true,
      "inputs": [
        {
          "name": "operator",
          "type": "address"
        },
        {
          "name": "assetHolder",
          "type": "address"
        }
      ],
      "name": "isOperatorAuthorizedFor",
      "outputs": [
        {
          "name": "",
          "type": "bool"
        }
      ],
      "payable": false,
      "stateMutability": "view",
      "type": "function"
    },
    {
      "constant": false,
      "inputs": [],
      "name": "ping",
      "outputs": [],
      "payable": false,
      "stateMutability": "nonpayable",
      "type": "function"
    },
    {
      "constant": true,
      "inputs": [
        {
          "name": "x",
          "type": "int256"
        },
        {
          "name": "y",
          "type": "int256"
        }
      ],
      "name": "encodeTokenId",
      "outputs": [
        {
          "name": "",
          "type": "uint256"
        }
      ],
      "payable": false,
      "stateMutability": "view",
      "type": "function"
    },
    {
      "constant": true,
      "inputs": [],
      "name": "description",
      "outputs": [
        {
          "name": "",
          "type": "string"
        }
      ],
      "payable": false,
      "stateMutability": "view",
      "type": "function"
    },
    {
      "constant": true,
      "inputs": [
        {
          "name": "value",
          "type": "uint256"
        }
      ],
      "name": "decodeTokenId",
      "outputs": [
        {
          "name": "",
          "type": "int256"
        },
        {
          "name": "",
          "type": "int256"
        }
      ],
      "payable": false,
      "stateMutability": "view",
      "type": "function"
    },
    {
      "constant": false,
      "inputs": [
        {
          "name": "x",
          "type": "int256[]"
        },
        {
          "name": "y",
          "type": "int256[]"
        },
        {
          "name": "beneficiary",
          "type": "address"
        }
      ],
      "name": "assignMultipleParcels",
      "outputs": [],
      "payable": false,
      "stateMutability": "nonpayable",
      "type": "function"
    },
    {
      "constant": true,
      "inputs": [
        {
          "name": "owner",
          "type": "address"
        }
      ],
      "name": "landOf",
      "outputs": [
        {
          "name": "",
          "type": "int256[]"
        },
        {
          "name": "",
          "type": "int256[]"
        }
      ],
      "payable": false,
      "stateMutability": "view",
      "type": "function"
    },
    {
      "constant": true,
      "inputs": [],
      "name": "owner",
      "outputs": [
        {
          "name": "",
          "type": "address"
        }
      ],
      "payable": false,
      "stateMutability": "view",
      "type": "function"
    },
    {
      "constant": true,
      "inputs": [],
      "name": "symbol",
      "outputs": [
        {
          "name": "",
          "type": "string"
        }
      ],
      "payable": false,
      "stateMutability": "view",
      "type": "function"
    },
    {
      "constant": false,
      "inputs": [
        {
          "name": "x",
          "type": "int256[]"
        },
        {
          "name": "y",
          "type": "int256[]"
        }
      ],
      "name": "clearLand",
      "outputs": [],
      "payable": false,
      "stateMutability": "nonpayable",
      "type": "function"
    },
    {
      "constant": false,
      "inputs": [
        {
          "name": "assetId",
          "type": "uint256"
        }
      ],
      "name": "destroy",
      "outputs": [],
      "payable": false,
      "stateMutability": "nonpayable",
      "type": "function"
    },
    {
      "constant": true,
      "inputs": [
        {
          "name": "x",
          "type": "int256"
        },
        {
          "name": "y",
          "type": "int256"
        }
      ],
      "name": "exists",
      "outputs": [
        {
          "name": "",
          "type": "bool"
        }
      ],
      "payable": false,
      "stateMutability": "view",
      "type": "function"
    },
    {
      "constant": false,
      "inputs": [
        {
          "name": "to",
          "type": "address"
        },
        {
          "name": "assetId",
          "type": "uint256"
        }
      ],
      "name": "transfer",
      "outputs": [],
      "payable": false,
      "stateMutability": "nonpayable",
      "type": "function"
    },
    {
      "constant": true,
      "inputs": [
        {
          "name": "assetId",
          "type": "uint256"
        }
      ],
      "name": "assetData",
      "outputs": [
        {
          "name": "",
          "type": "string"
        }
      ],
      "payable": false,
      "stateMutability": "view",
      "type": "function"
    },
    {
      "constant": false,
      "inputs": [
        {
          "name": "to",
          "type": "address"
        },
        {
          "name": "assetId",
          "type": "uint256"
        },
        {
          "name": "userData",
          "type": "bytes"
        },
        {
          "name": "operatorData",
          "type": "bytes"
        }
      ],
      "name": "operatorTransfer",
      "outputs": [],
      "payable": false,
      "stateMutability": "nonpayable",
      "type": "function"
    },
    {
      "constant": false,
      "inputs": [
        {
          "name": "operator",
          "type": "address"
        },
        {
          "name": "_authorized",
          "type": "bool"
        }
      ],
      "name": "authorizeOperator",
      "outputs": [],
      "payable": false,
      "stateMutability": "nonpayable",
      "type": "function"
    },
    {
      "constant": false,
      "inputs": [
        {
          "name": "to",
          "type": "address"
        },
        {
          "name": "assetId",
          "type": "uint256"
        },
        {
          "name": "_userData",
          "type": "bytes"
        }
      ],
      "name": "transfer",
      "outputs": [],
      "payable": false,
      "stateMutability": "nonpayable",
      "type": "function"
    },
    {
      "constant": true,
      "inputs": [
        {
          "name": "holder",
          "type": "address"
        },
        {
          "name": "index",
          "type": "uint256"
        }
      ],
      "name": "assetByIndex",
      "outputs": [
        {
          "name": "",
          "type": "uint256"
        }
      ],
      "payable": false,
      "stateMutability": "view",
      "type": "function"
    },
    {
      "constant": true,
      "inputs": [
        {
          "name": "holder",
          "type": "address"
        }
      ],
      "name": "allAssetsOf",
      "outputs": [
        {
          "name": "",
          "type": "uint256[]"
        }
      ],
      "payable": false,
      "stateMutability": "view",
      "type": "function"
    },
    {
      "constant": false,
      "inputs": [
        {
          "name": "x",
          "type": "int256"
        },
        {
          "name": "y",
          "type": "int256"
        },
        {
          "name": "data",
          "type": "string"
        }
      ],
      "name": "updateLandData",
      "outputs": [],
      "payable": false,
      "stateMutability": "nonpayable",
      "type": "function"
    },
    {
      "constant": false,
      "inputs": [
        {
          "name": "assetId",
          "type": "uint256"
        },
        {
          "name": "beneficiary",
          "type": "address"
        },
        {
          "name": "data",
          "type": "string"
        }
      ],
      "name": "generate",
      "outputs": [],
      "payable": false,
      "stateMutability": "nonpayable",
      "type": "function"
    },
    {
      "constant": true,
      "inputs": [
        {
          "name": "assetId",
          "type": "uint256"
        }
      ],
      "name": "holderOf",
      "outputs": [
        {
          "name": "",
          "type": "address"
        }
      ],
      "payable": false,
      "stateMutability": "view",
      "type": "function"
    },
    {
      "constant": false,
      "inputs": [
        {
          "name": "_newOwner",
          "type": "address"
        }
      ],
      "name": "transferOwnership",
      "outputs": [],
      "payable": false,
      "stateMutability": "nonpayable",
      "type": "function"
    },
    {
      "constant": false,
      "inputs": [
        {
          "name": "assetId",
          "type": "uint256"
        },
        {
          "name": "data",
          "type": "string"
        }
      ],
      "name": "update",
      "outputs": [],
      "payable": false,
      "stateMutability": "nonpayable",
      "type": "function"
    },
    {
      "anonymous": false,
      "inputs": [
        {
          "indexed": true,
          "name": "from",
          "type": "address"
        },
        {
          "indexed": true,
          "name": "to",
          "type": "address"
        },
        {
          "indexed": true,
          "name": "assetId",
          "type": "uint256"
        },
        {
          "indexed": false,
          "name": "operator",
          "type": "address"
        },
        {
          "indexed": false,
          "name": "userData",
          "type": "bytes"
        },
        {
          "indexed": false,
          "name": "operatorData",
          "type": "bytes"
        }
      ],
      "name": "Transfer",
      "type": "event"
    },
    {
      "anonymous": false,
      "inputs": [
        {
          "indexed": true,
          "name": "holder",
          "type": "address"
        },
        {
          "indexed": true,
          "name": "assetId",
          "type": "uint256"
        },
        {
          "indexed": true,
          "name": "operator",
          "type": "address"
        },
        {
          "indexed": false,
          "name": "data",
          "type": "string"
        }
      ],
      "name": "Create",
      "type": "event"
    },
    {
      "anonymous": false,
      "inputs": [
        {
          "indexed": true,
          "name": "assetId",
          "type": "uint256"
        },
        {
          "indexed": true,
          "name": "holder",
          "type": "address"
        },
        {
          "indexed": true,
          "name": "operator",
          "type": "address"
        },
        {
          "indexed": false,
          "name": "data",
          "type": "string"
        }
      ],
      "name": "Update",
      "type": "event"
    },
    {
      "anonymous": false,
      "inputs": [
        {
          "indexed": true,
          "name": "holder",
          "type": "address"
        },
        {
          "indexed": true,
          "name": "assetId",
          "type": "uint256"
        },
        {
          "indexed": true,
          "name": "operator",
          "type": "address"
        }
      ],
      "name": "Destroy",
      "type": "event"
    },
    {
      "anonymous": false,
      "inputs": [
        {
          "indexed": true,
          "name": "operator",
          "type": "address"
        },
        {
          "indexed": true,
          "name": "holder",
          "type": "address"
        },
        {
          "indexed": false,
          "name": "authorized",
          "type": "bool"
        }
      ],
      "name": "AuthorizeOperator",
      "type": "event"
    },
    {
      "anonymous": false,
      "inputs": [
        {
          "indexed": false,
          "name": "_prevOwner",
          "type": "address"
        },
        {
          "indexed": false,
          "name": "_newOwner",
          "type": "address"
        }
      ],
      "name": "OwnerUpdate",
      "type": "event"
    }
  ],
  "bytecode": "0x606060405233600160006101000a81548173ffffffffffffffffffffffffffffffffffffffff021916908373ffffffffffffffffffffffffffffffffffffffff160217905550613627806100546000396000f300606060405260043610610204576000357c0100000000000000000000000000000000000000000000000000000000900463ffffffff16806306fdde03146102095780631080f25114610297578063133cbe3a1461030357806318160ddd1461033c5780631cc69ac1146103655780631d4b11e4146103b05780631e4c77361461049f578063231c1d431461057c57806323b44cfc146105e25780632c62fa101461067057806335e64aaa146106fe578063412cbc0614610749578063426d4f2214610796578063439fab91146107cd5780634a7dd5231461082a5780634c4bf9361461084d5780634dad9003146108f25780634f558e79146109ab57806355ef2913146109e65780635c36b18614610a565780636fb7e58814610a6b5780637284e41614610aab5780637efd911214610b395780638668a41614610b77578063885363eb14610c305780638da5cb5b14610d0657806395d89b4114610d5b5780639cf6699714610de95780639d11877014610e83578063a8d8812714610ea6578063a9059cbb14610eea578063ac823a7e14610f2c578063ae5a9bb414610fc8578063b0994d4a14611090578063be45fd62146110d4578063d2953f8414611159578063d2cafe2d146111af578063d4dd15941461123d578063d944534a146112ac578063dbacc23714611331578063f2fde38b14611394578063f745630f146113cd575b600080fd5b341561021457600080fd5b61021c611433565b6040518080602001828103825283818151815260200191508051906020019080838360005b8381101561025c578082015181840152602081019050610241565b50505050905090810190601f1680156102895780820380516001836020036101000a031916815260200191505b509250505060405180910390f35b34156102a257600080fd5b6102c160048080359060200190919080359060200190919050506114db565b604051808273ffffffffffffffffffffffffffffffffffffffff1673ffffffffffffffffffffffffffffffffffffffff16815260200191505060405180910390f35b341561030e57600080fd5b61033a600480803573ffffffffffffffffffffffffffffffffffffffff169060200190919050506114f7565b005b341561034757600080fd5b61034f611597565b6040518082815260200191505060405180910390f35b341561037057600080fd5b6103ae600480803590602001909190803590602001909190803573ffffffffffffffffffffffffffffffffffffffff169060200190919050506115a1565b005b34156103bb57600080fd5b610448600480803590602001908201803590602001908080602002602001604051908101604052809392919081815260200183836020028082843782019150505050505091908035906020019082018035906020019080806020026020016040519081016040528093929190818152602001838360200280828437820191505050505050919050506115ca565b6040518080602001828103825283818151815260200191508051906020019060200280838360005b8381101561048b578082015181840152602081019050610470565b505050509050019250505060405180910390f35b34156104aa57600080fd5b61057a6004808035906020019082018035906020019080806020026020016040519081016040528093929190818152602001838360200280828437820191505050505050919080359060200190820180359060200190808060200260200160405190810160405280939291908181526020018383602002808284378201915050505050509190803590602001908201803590602001908080601f016020809104026020016040519081016040528093929190818152602001838380828437820191505050505050919050506116c5565b005b341561058757600080fd5b6105e0600480803590602001909190803590602001908201803590602001908080601f01602080910402602001604051908101604052809392919081815260200183838082843782019150505050505091905050611739565b005b34156105ed57600080fd5b61066e600480803590602001909190803590602001909190803573ffffffffffffffffffffffffffffffffffffffff1690602001909190803590602001908201803590602001908080601f01602080910402602001604051908101604052809392919081815260200183838082843782019150505050505091905050611748565b005b341561067b57600080fd5b6106a7600480803573ffffffffffffffffffffffffffffffffffffffff16906020019091905050611762565b6040518080602001828103825283818151815260200191508051906020019060200280838360005b838110156106ea5780820151818401526020810190506106cf565b505050509050019250505060405180910390f35b341561070957600080fd5b610747600480803590602001909190803590602001909190803573ffffffffffffffffffffffffffffffffffffffff1690602001909190505061177a565b005b341561075457600080fd5b610780600480803573ffffffffffffffffffffffffffffffffffffffff16906020019091905050611792565b6040518082815260200191505060405180910390f35b34156107a157600080fd5b6107b760048080359060200190919050506117de565b6040518082815260200191505060405180910390f35b34156107d857600080fd5b610828600480803590602001908201803590602001908080601f0160208091040260200160405190810160405280939291908181526020018383808284378201915050505050509190505061182e565b005b341561083557600080fd5b61084b600480803590602001909190505061193c565b005b341561085857600080fd5b610877600480803590602001909190803590602001909190505061195a565b6040518080602001828103825283818151815260200191508051906020019080838360005b838110156108b757808201518184015260208101905061089c565b50505050905090810190601f1680156108e45780820380516001836020036101000a031916815260200191505b509250505060405180910390f35b34156108fd57600080fd5b6109a96004808035906020019082018035906020019080806020026020016040519081016040528093929190818152602001838360200280828437820191505050505050919080359060200190820180359060200190808060200260200160405190810160405280939291908181526020018383602002808284378201915050505050509190803573ffffffffffffffffffffffffffffffffffffffff1690602001909190505061197c565b005b34156109b657600080fd5b6109cc60048080359060200190919050506119e8565b604051808215151515815260200191505060405180910390f35b34156109f157600080fd5b610a3c600480803573ffffffffffffffffffffffffffffffffffffffff1690602001909190803573ffffffffffffffffffffffffffffffffffffffff16906020019091905050611a3e565b604051808215151515815260200191505060405180910390f35b3415610a6157600080fd5b610a69611ad2565b005b3415610a7657600080fd5b610a956004808035906020019091908035906020019091905050611b18565b6040518082815260200191505060405180910390f35b3415610ab657600080fd5b610abe611b6c565b6040518080602001828103825283818151815260200191508051906020019080838360005b83811015610afe578082015181840152602081019050610ae3565b50505050905090810190601f168015610b2b5780820380516001836020036101000a031916815260200191505b509250505060405180910390f35b3415610b4457600080fd5b610b5a6004808035906020019091905050611c14565b604051808381526020018281526020019250505060405180910390f35b3415610b8257600080fd5b610c2e6004808035906020019082018035906020019080806020026020016040519081016040528093929190818152602001838360200280828437820191505050505050919080359060200190820180359060200190808060200260200160405190810160405280939291908181526020018383602002808284378201915050505050509190803573ffffffffffffffffffffffffffffffffffffffff16906020019091905050611c79565b005b3415610c3b57600080fd5b610c67600480803573ffffffffffffffffffffffffffffffffffffffff16906020019091905050611ced565b604051808060200180602001838103835285818151815260200191508051906020019060200280838360005b83811015610cae578082015181840152602081019050610c93565b50505050905001838103825284818151815260200191508051906020019060200280838360005b83811015610cf0578082015181840152602081019050610cd5565b5050505090500194505050505060405180910390f35b3415610d1157600080fd5b610d19611df7565b604051808273ffffffffffffffffffffffffffffffffffffffff1673ffffffffffffffffffffffffffffffffffffffff16815260200191505060405180910390f35b3415610d6657600080fd5b610d6e611e1d565b6040518080602001828103825283818151815260200191508051906020019080838360005b83811015610dae578082015181840152602081019050610d93565b50505050905090810190601f168015610ddb5780820380516001836020036101000a031916815260200191505b509250505060405180910390f35b3415610df457600080fd5b610e8160048080359060200190820180359060200190808060200260200160405190810160405280939291908181526020018383602002808284378201915050505050509190803590602001908201803590602001908080602002602001604051908101604052809392919081815260200183836020028082843782019150505050505091905050611ec5565b005b3415610e8e57600080fd5b610ea46004808035906020019091905050611ff4565b005b3415610eb157600080fd5b610ed0600480803590602001909190803590602001909190505061211b565b604051808215151515815260200191505060405180910390f35b3415610ef557600080fd5b610f2a600480803573ffffffffffffffffffffffffffffffffffffffff16906020019091908035906020019091905050612137565b005b3415610f3757600080fd5b610f4d60048080359060200190919050506121d8565b6040518080602001828103825283818151815260200191508051906020019080838360005b83811015610f8d578082015181840152602081019050610f72565b50505050905090810190601f168015610fba5780820380516001836020036101000a031916815260200191505b509250505060405180910390f35b3415610fd357600080fd5b61108e600480803573ffffffffffffffffffffffffffffffffffffffff1690602001909190803590602001909190803590602001908201803590602001908080601f0160208091040260200160405190810160405280939291908181526020018383808284378201915050505050509190803590602001908201803590602001908080601f01602080910402602001604051908101604052809392919081815260200183838082843782019150505050505091905050612293565b005b341561109b57600080fd5b6110d2600480803573ffffffffffffffffffffffffffffffffffffffff169060200190919080351515906020019091905050612359565b005b34156110df57600080fd5b611157600480803573ffffffffffffffffffffffffffffffffffffffff1690602001909190803590602001909190803590602001908201803590602001908080601f01602080910402602001604051908101604052809392919081815260200183838082843782019150505050505091905050612411565b005b341561116457600080fd5b611199600480803573ffffffffffffffffffffffffffffffffffffffff169060200190919080359060200190919050506124a3565b6040518082815260200191505060405180910390f35b34156111ba57600080fd5b6111e6600480803573ffffffffffffffffffffffffffffffffffffffff16906020019091905050612505565b6040518080602001828103825283818151815260200191508051906020019060200280838360005b8381101561122957808201518184015260208101905061120e565b505050509050019250505060405180910390f35b341561124857600080fd5b6112aa600480803590602001909190803590602001909190803590602001908201803590602001908080601f01602080910402602001604051908101604052809392919081815260200183838082843782019150505050505091905050612618565b005b34156112b757600080fd5b61132f600480803590602001909190803573ffffffffffffffffffffffffffffffffffffffff1690602001909190803590602001908201803590602001908080601f01602080910402602001604051908101604052809392919081815260200183838082843782019150505050505091905050612630565b005b341561133c57600080fd5b6113526004808035906020019091905050612699565b604051808273ffffffffffffffffffffffffffffffffffffffff1673ffffffffffffffffffffffffffffffffffffffff16815260200191505060405180910390f35b341561139f57600080fd5b6113cb600480803573ffffffffffffffffffffffffffffffffffffffff169060200190919050506126d6565b005b34156113d857600080fd5b611431600480803590602001909190803590602001908201803590602001908080601f016020809104026020016040519081016040528093929190818152602001838380828437820191505050505050919050506127d0565b005b61143b61348d565b60028054600181600116156101000203166002900480601f0160208091040260200160405190810160405280929190818152602001828054600181600116156101000203166002900480156114d15780601f106114a6576101008083540402835291602001916114d1565b820191906000526020600020905b8154815290600101906020018083116114b457829003601f168201915b5050505050905090565b60006114ef6114ea8484611b18565b612699565b905092915050565b600160009054906101000a900473ffffffffffffffffffffffffffffffffffffffff1673ffffffffffffffffffffffffffffffffffffffff163373ffffffffffffffffffffffffffffffffffffffff1614151561155057fe5b42600c60008373ffffffffffffffffffffffffffffffffffffffff1673ffffffffffffffffffffffffffffffffffffffff1681526020019081526020016000208190555050565b6000600554905090565b6115c56115ae8484611b18565b826020604051908101604052806000815250612630565b505050565b6115d26134a1565b6115da6134a1565b60008085511115156115eb57600080fd5b835185511415156115fb57600080fd5b845160405180591061160a5750595b90808252806020026020018201604052509150600090505b84518110156116ba57611663858281518110151561163c57fe5b90602001906020020151858381518110151561165457fe5b906020019060200201516114db565b828281518110151561167157fe5b9060200190602002019073ffffffffffffffffffffffffffffffffffffffff16908173ffffffffffffffffffffffffffffffffffffffff16815250508080600101915050611622565b819250505092915050565b6000825184511415156116d757600080fd5b600090505b83518110156117335761172661172085838151811015156116f957fe5b90602001906020020151858481518110151561171157fe5b90602001906020020151611b18565b836127d0565b80806001019150506116dc565b50505050565b611744823383612630565b5050565b61175c6117558585611b18565b8383612630565b50505050565b61176a6134b5565b61177382612505565b9050919050565b61178d816117888585611b18565b612137565b505050565b6000600660008373ffffffffffffffffffffffffffffffffffffffff1673ffffffffffffffffffffffffffffffffffffffff168152602001908152602001600020805490509050919050565b6000806f800000000000000000000000000000008316141515611825577fffffffffffffffffffffffffffffffff0000000000000000000000000000000082179050611829565b8190505b919050565b6040805190810160405280601181526020017f446563656e7472616c616e64204c414e44000000000000000000000000000000815250600290805190602001906118799291906134c9565b506040805190810160405280600481526020017f4c414e4400000000000000000000000000000000000000000000000000000000815250600390805190602001906118c59291906134c9565b50606060405190810160405280603381526020017f436f6e747261637420746861742073746f7265732074686520446563656e747281526020017f616c616e64204c414e4420726567697374727900000000000000000000000000815250600490805190602001906119389291906134c9565b5050565b61195781336020604051908101604052806000815250612630565b50565b61196261348d565b61197461196f8484611b18565b6121d8565b905092915050565b60008251845114151561198e57600080fd5b6000905083518110156119e1576119dc826119d786848151811015156119b057fe5b9060200190602002015186858151811015156119c857fe5b90602001906020020151611b18565b612137565b6119e2565b5b50505050565b6000806007600084815260200190815260200160002060009054906101000a900473ffffffffffffffffffffffffffffffffffffffff1673ffffffffffffffffffffffffffffffffffffffff1614159050919050565b6000600a60008373ffffffffffffffffffffffffffffffffffffffff1673ffffffffffffffffffffffffffffffffffffffff16815260200190815260200160002060008473ffffffffffffffffffffffffffffffffffffffff1673ffffffffffffffffffffffffffffffffffffffff16815260200190815260200160002060009054906101000a900460ff16905092915050565b42600c60003373ffffffffffffffffffffffffffffffffffffffff1673ffffffffffffffffffffffffffffffffffffffff16815260200190815260200160002081905550565b60006fffffffffffffffffffffffffffffffff82167fffffffffffffffffffffffffffffffff0000000000000000000000000000000070010000000000000000000000000000000085021617905092915050565b611b7461348d565b60048054600181600116156101000203166002900480601f016020809104026020016040519081016040528092919081815260200182805460018160011615610100020316600290048015611c0a5780601f10611bdf57610100808354040283529160200191611c0a565b820191906000526020600020905b815481529060010190602001808311611bed57829003601f168201915b5050505050905090565b60008060008060807fffffffffffffffffffffffffffffffff0000000000000000000000000000000086169060020a900491506fffffffffffffffffffffffffffffffff85169050611c65826117de565b611c6e826117de565b935093505050915091565b60008090505b8351811015611ce757611cda611cc38583815181101515611c9c57fe5b906020019060200201518584815181101515611cb457fe5b90602001906020020151611b18565b836020604051908101604052806000815250612630565b8080600101915050611c7f565b50505050565b611cf5613549565b611cfd613549565b611d056134b5565b611d0d613549565b611d15613549565b6000806000611d2389611762565b95508551604051805910611d345750595b908082528060200260200182016040525094508551604051805910611d565750595b90808252806020026020018201604052509350600090505b8551811015611de657611d978682815181101515611d8857fe5b90602001906020020151611c14565b8093508194505050828582815181101515611dae57fe5b9060200190602002018181525050818482815181101515611dcb57fe5b90602001906020020181815250508080600101915050611d6e565b848497509750505050505050915091565b600160009054906101000a900473ffffffffffffffffffffffffffffffffffffffff1681565b611e2561348d565b60038054600181600116156101000203166002900480601f016020809104026020016040519081016040528092919081815260200182805460018160011615610100020316600290048015611ebb5780601f10611e9057610100808354040283529160200191611ebb565b820191906000526020600020905b815481529060010190602001808311611e9e57829003601f168201915b5050505050905090565b600080600083518551141515611eda57600080fd5b600092505b8451831015611fed57611f208584815181101515611ef957fe5b906020019060200201518585815181101515611f1157fe5b90602001906020020151611b18565b9150611f2b82612699565b90506301e133804203600c60008373ffffffffffffffffffffffffffffffffffffffff1673ffffffffffffffffffffffffffffffffffffffff168152602001908152602001600020541015611fe057611f8481836129ad565b3373ffffffffffffffffffffffffffffffffffffffff16828273ffffffffffffffffffffffffffffffffffffffff167f17fb4d6623db19a3b9af62c539ac91c3f28840aa8fd5b86a3f59867577caeac760405160405180910390a45b8280600101935050611edf565b5050505050565b600160009054906101000a900473ffffffffffffffffffffffffffffffffffffffff1673ffffffffffffffffffffffffffffffffffffffff163373ffffffffffffffffffffffffffffffffffffffff1614151561204d57fe5b61208a6007600083815260200190815260200160002060009054906101000a900473ffffffffffffffffffffffffffffffffffffffff16826129ad565b3373ffffffffffffffffffffffffffffffffffffffff16816007600084815260200190815260200160002060009054906101000a900473ffffffffffffffffffffffffffffffffffffffff1673ffffffffffffffffffffffffffffffffffffffff167f17fb4d6623db19a3b9af62c539ac91c3f28840aa8fd5b86a3f59867577caeac760405160405180910390a450565b600061212f61212a8484611b18565b6119e8565b905092915050565b803373ffffffffffffffffffffffffffffffffffffffff166007600083815260200190815260200160002060009054906101000a900473ffffffffffffffffffffffffffffffffffffffff1673ffffffffffffffffffffffffffffffffffffffff161415156121a557600080fd5b6121d38383602060405190810160405280600081525060006020604051908101604052806000815250612c8a565b505050565b6121e061348d565b600960008381526020019081526020016000208054600181600116156101000203166002900480601f0160208091040260200160405190810160405280929190818152602001828054600181600116156101000203166002900480156122875780601f1061225c57610100808354040283529160200191612287565b820191906000526020600020905b81548152906001019060200180831161226a57829003601f168201915b50505050509050919050565b823373ffffffffffffffffffffffffffffffffffffffff166007600083815260200190815260200160002060009054906101000a900473ffffffffffffffffffffffffffffffffffffffff1673ffffffffffffffffffffffffffffffffffffffff16148061233a5750612339336007600084815260200190815260200160002060009054906101000a900473ffffffffffffffffffffffffffffffffffffffff16611a3e565b5b151561234557600080fd5b6123528585853386612c8a565b5050505050565b8015612384576123698233611a3e565b15151561237557600080fd5b61237f82336130a9565b6123a4565b61238e8233611a3e565b151561239957600080fd5b6123a38233613142565b5b3373ffffffffffffffffffffffffffffffffffffffff168273ffffffffffffffffffffffffffffffffffffffff167ffe1dcbb12493a4af760875b0c328b264e6397b8bd47cdc249df0444b4daf1cbc83604051808215151515815260200191505060405180910390a35050565b813373ffffffffffffffffffffffffffffffffffffffff166007600083815260200190815260200160002060009054906101000a900473ffffffffffffffffffffffffffffffffffffffff1673ffffffffffffffffffffffffffffffffffffffff1614151561247f57600080fd5b61249d84848460006020604051908101604052806000815250612c8a565b50505050565b6000600660008473ffffffffffffffffffffffffffffffffffffffff1673ffffffffffffffffffffffffffffffffffffffff168152602001908152602001600020828154811015156124f157fe5b906000526020600020900154905092915050565b61250d6134b5565b60006125176134b5565b6000600660008673ffffffffffffffffffffffffffffffffffffffff1673ffffffffffffffffffffffffffffffffffffffff1681526020019081526020016000208054905092508260405180591061256c5750595b90808252806020026020018201604052509150600090505b8281101561260d57600660008673ffffffffffffffffffffffffffffffffffffffff1673ffffffffffffffffffffffffffffffffffffffff168152602001908152602001600020818154811015156125d857fe5b90600052602060002090015482828151811015156125f257fe5b90602001906020020181815250508080600101915050612584565b819350505050919050565b61262b6126258484611b18565b826127d0565b505050565b600160009054906101000a900473ffffffffffffffffffffffffffffffffffffffff1673ffffffffffffffffffffffffffffffffffffffff163373ffffffffffffffffffffffffffffffffffffffff1614151561268957fe5b6126948383836131db565b505050565b60006007600083815260200190815260200160002060009054906101000a900473ffffffffffffffffffffffffffffffffffffffff169050919050565b600160009054906101000a900473ffffffffffffffffffffffffffffffffffffffff1673ffffffffffffffffffffffffffffffffffffffff163373ffffffffffffffffffffffffffffffffffffffff1614151561272f57fe5b600160009054906101000a900473ffffffffffffffffffffffffffffffffffffffff1673ffffffffffffffffffffffffffffffffffffffff168173ffffffffffffffffffffffffffffffffffffffff161415151561278c57600080fd5b80600160006101000a81548173ffffffffffffffffffffffffffffffffffffffff021916908373ffffffffffffffffffffffffffffffffffffffff16021790555050565b813373ffffffffffffffffffffffffffffffffffffffff166007600083815260200190815260200160002060009054906101000a900473ffffffffffffffffffffffffffffffffffffffff1673ffffffffffffffffffffffffffffffffffffffff1614806128775750612876336007600084815260200190815260200160002060009054906101000a900473ffffffffffffffffffffffffffffffffffffffff16611a3e565b5b151561288257600080fd5b816009600085815260200190815260200160002090805190602001906128a99291906134c9565b503373ffffffffffffffffffffffffffffffffffffffff166007600085815260200190815260200160002060009054906101000a900473ffffffffffffffffffffffffffffffffffffffff1673ffffffffffffffffffffffffffffffffffffffff16847f47c705b9219229ad762fca605f08fb024a3415d0ae78af5d319820c72e510414856040518080602001828103825283818151815260200191508051906020019080838360005b8381101561296e578082015181840152602081019050612953565b50505050905090810190601f16801561299b5780820380516001836020036101000a031916815260200191505b509250505060405180910390a4505050565b6000806000600860008581526020019081526020016000205492506129e460016129d687611792565b61330e90919063ffffffff16565b9150600660008673ffffffffffffffffffffffffffffffffffffffff1673ffffffffffffffffffffffffffffffffffffffff16815260200190815260200160002082815481101515612a3257fe5b906000526020600020900154905060006007600086815260200190815260200160002060006101000a81548173ffffffffffffffffffffffffffffffffffffffff021916908373ffffffffffffffffffffffffffffffffffffffff16021790555080600660008773ffffffffffffffffffffffffffffffffffffffff1673ffffffffffffffffffffffffffffffffffffffff16815260200190815260200160002084815481101515612ae057fe5b9060005260206000209001819055506000600660008773ffffffffffffffffffffffffffffffffffffffff1673ffffffffffffffffffffffffffffffffffffffff16815260200190815260200160002083815481101515612b3d57fe5b906000526020600020900181905550600660008673ffffffffffffffffffffffffffffffffffffffff1673ffffffffffffffffffffffffffffffffffffffff168152602001908152602001600020805480919060019003612b9e919061355d565b506000600660008773ffffffffffffffffffffffffffffffffffffffff1673ffffffffffffffffffffffffffffffffffffffff168152602001908152602001600020805490501415612c3657600660008673ffffffffffffffffffffffffffffffffffffffff1673ffffffffffffffffffffffffffffffffffffffff1681526020019081526020016000206000612c359190613589565b5b60006008600086815260200190815260200160002081905550826008600083815260200190815260200160002081905550612c7d600160055461330e90919063ffffffff16565b6005819055505050505050565b60006007600086815260200190815260200160002060009054906101000a900473ffffffffffffffffffffffffffffffffffffffff169050612ccc81866129ad565b612cd68686613327565b612cdf86613425565b15612f355760001515600b60009054906101000a900460ff161515141515612d0657600080fd5b6001600b60006101000a81548160ff0219169083151502179055508573ffffffffffffffffffffffffffffffffffffffff16633bde30728683898888886040518763ffffffff167c0100000000000000000000000000000000000000000000000000000000028152600401808781526020018673ffffffffffffffffffffffffffffffffffffffff1673ffffffffffffffffffffffffffffffffffffffff1681526020018573ffffffffffffffffffffffffffffffffffffffff1673ffffffffffffffffffffffffffffffffffffffff168152602001806020018473ffffffffffffffffffffffffffffffffffffffff1673ffffffffffffffffffffffffffffffffffffffff16815260200180602001838103835286818151815260200191508051906020019080838360005b83811015612e4e578082015181840152602081019050612e33565b50505050905090810190601f168015612e7b5780820380516001836020036101000a031916815260200191505b50838103825284818151815260200191508051906020019080838360005b83811015612eb4578082015181840152602081019050612e99565b50505050905090810190601f168015612ee15780820380516001836020036101000a031916815260200191505b5098505050505050505050600060405180830381600087803b1515612f0557600080fd5b6102c65a03f11515612f1657600080fd5b5050506000600b60006101000a81548160ff0219169083151502179055505b848673ffffffffffffffffffffffffffffffffffffffff168273ffffffffffffffffffffffffffffffffffffffff167f8988d59efc2c4547ef86c88f6543963bab0cea94f8e486e619c7c3a790db93be868887604051808473ffffffffffffffffffffffffffffffffffffffff1673ffffffffffffffffffffffffffffffffffffffff1681526020018060200180602001838103835285818151815260200191508051906020019080838360005b83811015612ffe578082015181840152602081019050612fe3565b50505050905090810190601f16801561302b5780820380516001836020036101000a031916815260200191505b50838103825284818151815260200191508051906020019080838360005b83811015613064578082015181840152602081019050613049565b50505050905090810190601f1680156130915780820380516001836020036101000a031916815260200191505b509550505050505060405180910390a4505050505050565b6001600a60008373ffffffffffffffffffffffffffffffffffffffff1673ffffffffffffffffffffffffffffffffffffffff16815260200190815260200160002060008473ffffffffffffffffffffffffffffffffffffffff1673ffffffffffffffffffffffffffffffffffffffff16815260200190815260200160002060006101000a81548160ff0219169083151502179055505050565b6000600a60008373ffffffffffffffffffffffffffffffffffffffff1673ffffffffffffffffffffffffffffffffffffffff16815260200190815260200160002060008473ffffffffffffffffffffffffffffffffffffffff1673ffffffffffffffffffffffffffffffffffffffff16815260200190815260200160002060006101000a81548160ff0219169083151502179055505050565b60006007600085815260200190815260200160002060009054906101000a900473ffffffffffffffffffffffffffffffffffffffff1673ffffffffffffffffffffffffffffffffffffffff1614151561323357600080fd5b61323e828483613438565b3373ffffffffffffffffffffffffffffffffffffffff16838373ffffffffffffffffffffffffffffffffffffffff167ff7cf9a1c7469e5750e8c9caa9e40abc4830bb364336547bb7a0de846fedb4b9c846040518080602001828103825283818151815260200191508051906020019080838360005b838110156132cf5780820151818401526020810190506132b4565b50505050905090810190601f1680156132fc5780820380516001836020036101000a031916815260200191505b509250505060405180910390a4505050565b600082821115151561331c57fe5b818303905092915050565b6000826007600084815260200190815260200160002060006101000a81548173ffffffffffffffffffffffffffffffffffffffff021916908373ffffffffffffffffffffffffffffffffffffffff16021790555061338483611792565b9050600660008473ffffffffffffffffffffffffffffffffffffffff1673ffffffffffffffffffffffffffffffffffffffff16815260200190815260200160002080548060010182816133d791906135aa565b91600052602060002090016000849091909150555080600860008481526020019081526020016000208190555061341a600160055461346f90919063ffffffff16565b600581905550505050565b600080823b905060008111915050919050565b6134428383613327565b806009600084815260200190815260200160002090805190602001906134699291906134c9565b50505050565b600080828401905083811015151561348357fe5b8091505092915050565b602060405190810160405280600081525090565b602060405190810160405280600081525090565b602060405190810160405280600081525090565b828054600181600116156101000203166002900490600052602060002090601f016020900481019282601f1061350a57805160ff1916838001178555613538565b82800160010185558215613538579182015b8281111561353757825182559160200191906001019061351c565b5b50905061354591906135d6565b5090565b602060405190810160405280600081525090565b8154818355818115116135845781836000526020600020918201910161358391906135d6565b5b505050565b50805460008255906000526020600020908101906135a791906135d6565b50565b8154818355818115116135d1578183600052602060002091820191016135d091906135d6565b5b505050565b6135f891905b808211156135f45760008160009055506001016135dc565b5090565b905600a165627a7a72305820acf6947f6cab29a802a030717915cff35a582a60ab19e1231b1496904a4662670029",
  "source": "pragma solidity ^0.4.18;\n\nimport '../Storage.sol';\n\nimport '../upgradable/Ownable.sol';\n\nimport '../upgradable/IApplication.sol';\n\nimport '../registry/StandardAssetRegistry.sol';\n\nimport './ILANDRegistry.sol';\n\ncontract LANDRegistry is Storage,\n  Ownable, StandardAssetRegistry,\n  ILANDRegistry\n{\n\n  function initialize(bytes /* data */) public {\n    _name = 'Decentraland LAND';\n    _symbol = 'LAND';\n    _description = 'Contract that stores the Decentraland LAND registry';\n  }\n\n  //\n  // Land is assignable by the owner\n  //\n\n  function assignNewParcel(int x, int y, address beneficiary, string data) public {\n    generate(encodeTokenId(x, y), beneficiary, data);\n  }\n\n  function assignNewParcel(int x, int y, address beneficiary) public {\n    generate(encodeTokenId(x, y), beneficiary, '');\n  }\n\n  function assignMultipleParcels(int[] x, int[] y, address beneficiary) public {\n    for (uint i = 0; i < x.length; i++) {\n      generate(encodeTokenId(x[i], y[i]), beneficiary, '');\n    }\n  }\n\n  function generate(uint256 assetId, address beneficiary, string data) onlyOwner public {\n    doGenerate(assetId, beneficiary, data);\n  }\n\n  function destroy(uint256 assetId) onlyOwner public {\n    _removeAssetFrom(_holderOf[assetId], assetId);\n    Destroy(_holderOf[assetId], assetId, msg.sender);\n  }\n\n  //\n  // Inactive keys after 1 year lose ownership\n  //\n\n  function ping() public {\n    latestPing[msg.sender] = now;\n  }\n\n  function setLatestToNow(address user) onlyOwner public {\n    latestPing[user] = now;\n  }\n\n  function clearLand(int[] x, int[] y) public {\n    require(x.length == y.length);\n    for (uint i = 0; i < x.length; i++) {\n      uint landId = encodeTokenId(x[i], y[i]);\n      address holder = holderOf(landId);\n      if (latestPing[holder] < now - 1 years) {\n        _removeAssetFrom(holder, landId);\n        Destroy(holder, landId, msg.sender);\n      }\n    }\n  }\n\n  //\n  // LAND Getters\n  //\n\n  function encodeTokenId(int x, int y) view public returns (uint) {\n    return ((uint(x) * factor) & clearLow) | (uint(y) & clearHigh);\n  }\n\n  function decodeTokenId(uint value) view public returns (int, int) {\n    uint x = (value & clearLow) >> 128;\n    uint y = (value & clearHigh);\n    return (expandNegative128BitCast(x), expandNegative128BitCast(y));\n  }\n\n  function expandNegative128BitCast(uint value) view public returns (int) {\n    if (value & (1<<127) != 0) {\n      return int(value | clearLow);\n    }\n    return int(value);\n  }\n\n  function exists(int x, int y) view public returns (bool) {\n    return exists(encodeTokenId(x, y));\n  }\n\n  function ownerOfLand(int x, int y) view public returns (address) {\n    return holderOf(encodeTokenId(x, y));\n  }\n\n  function ownerOfLandMany(int[] x, int[] y) view public returns (address[]) {\n    require(x.length > 0);\n    require(x.length == y.length);\n\n    address[] memory addrs = new address[](x.length);\n    for (uint i = 0; i < x.length; i++) {\n      addrs[i] = ownerOfLand(x[i], y[i]);\n    }\n\n    return addrs;\n  }\n\n  function landOf(address owner) view public returns (int[], int[]) {\n    uint256[] memory assets = assetsOf(owner);\n    int[] memory x = new int[](assets.length);\n    int[] memory y = new int[](assets.length);\n\n    int assetX;\n    int assetY;\n    for (uint i = 0; i < assets.length; i++) {\n      (assetX, assetY) = decodeTokenId(assets[i]);\n      x[i] = assetX;\n      y[i] = assetY;\n    }\n\n    return (x, y);\n  }\n\n  function landData(int x, int y) view public returns (string) {\n    return assetData(encodeTokenId(x, y));\n  }\n\n  //\n  // Transfer LAND\n  //\n\n  function transferLand(int x, int y, address to) public {\n    return transfer(to, encodeTokenId(x, y));\n  }\n\n  function transferManyLand(int[] x, int[] y, address to) public {\n    require(x.length == y.length);\n    for (uint i = 0; i < x.length; i++) {\n      return transfer(to, encodeTokenId(x[i], y[i]));\n    }\n  }\n\n  //\n  // Update LAND\n  //\n\n  function updateLandData(int x, int y, string data) public {\n    return update(encodeTokenId(x, y), data);\n  }\n\n  function updateManyLandData(int[] x, int[] y, string data) public {\n    require(x.length == y.length);\n    for (uint i = 0; i < x.length; i++) {\n      update(encodeTokenId(x[i], y[i]), data);\n    }\n  }\n}\n",
  "sourcePath": "/Users/abarmat/dev/decentraland/land/contracts/land/LANDRegistry.sol",
  "compiler": {
    "name": "solc",
    "version": "0.4.18+commit.9cf6e910.Emscripten.clang"
  },
  "schemaVersion": "1.0.1",
  "updatedAt": "2018-01-12T21:37:08.546Z"
}